:100000000C94DD0A0C94240B0C94240B0C94240BFC
:100010000C94240B0C94240B0C94240B0C94240BA4
:100020000C94240B0C94240B0C94EF1D0C94AB1D1E
:100030000C949D2A0C94240B0C94240B0C94240BEC
:100040000C94240B0C94240B0C94240B0C94240B74
:100050000C94240B0C941E1F0C94240B0C94240B56
:100060000C94240B0C94240B0C94240B0C94240B54
:100070000C94240B0C94240B0C94240B0C94240B44
:100080000C94240B0C94240B0C94240B0C94240B34
:100090000C94240B0C94240B0C94240B0C94240B24
:1000A0000C94240B0C94240B0C94240B0631FF09A4
:1000B00074A1010975150026FF00952075088102BD
:1000C0000976150026FF00952075089102C00501EC
:1000D0000980A101850319012AB700150126B7007F
:1000E000950175108100C0050C0901A10185041955
:1000F000012AA002150126A002950175108100C0F9
:1001000005010906A1018506050719E029E7150083
:1001100025019508750181020507190029EF1500D1
:10012000250195F07501810205081901290595053C
:1001300075019102950175039101C00660FF096187
:10014000A1010962150026FF0095207508810209AA
:1001500063150026FF00952075089102C00501096E
:1001600006A101050719E029E71500250195087585
:100170000181029501750881010507190029FF1504
:100180000026FF009506750881000508190129055C
:10019000950575019102950175039101C00000005C
:1001A000000000000000000000000000000000004F
:1001B000000000000000000000000000000000003F
:1001C000007E0F00D4FFFFFFC70000007800000092
:1001D00000000000002A2B280000000000000000A2
:1001E000000000000000000029000000002C1E3468
:1001F00020212224342627252E362D3738271E1F6E
:10020000202122232425263333362E37381F040598
:10021000060708090A0B0C0D0E0F10111213141506
:10022000161718191A1B1C1D2F3130232D350405E4
:10023000060708090A0B0C0D0E0F101112131415E6
:10024000161718191A1B1C1D2F3130354C72676296
:100250006C696768742064697361626C65205B45D2
:100260004550524F4D5D3A207267626C6967687401
:100270005F636F6E6669672E656E61626C65203DB7
:100280002025750A007267626C6967687420656E64
:1002900061626C65205B454550524F4D5D3A20725E
:1002A00067626C696768745F636F6E6669672E6505
:1002B0006E61626C65203D2025750A007267626C74
:1002C0006967687420746F67676C65205B4545508B
:1002D000524F4D5D3A207267626C696768745F6364
:1002E0006F6E6669672E656E61626C65203D2025C4
:1002F000750A0044454255473A2064697361626C4F
:1003000065642E0A0044454255473A20656E616295
:100310006C65642E0A004F6E6573686F743A2061D5
:1003200063746976653A2025640A000A0025303234
:100330005820006B6579626F6172645F7265706FDF
:1003400072743A2000646973706C61795F736574CC
:10035000757032206661696C65640A0000DA02819A
:10036000FFD9F1DB20A4A62EAF646973706C6179AC
:100370005F666C6970706564206661696C65640AAB
:100380000000A0C06F6C65645F696E697420636D66
:1003900064206E6F726D616C20726F746174696F2E
:1003A0006E206661696C65640A0000A1C86F6C65A7
:1003B000645F696E697420636D64207365742031B5
:1003C000206661696C65640A0000AED580A81FD301
:1003D00000408D1420007267626C696768745F6307
:1003E0006F6E6669672E7370656564203D202564B5
:1003F0000A007267626C696768745F636F6E666932
:10040000672E76616C203D2025640A007267626C5D
:10041000696768745F636F6E6669672E73617420C5
:100420003D2025640A007267626C696768745F63C7
:100430006F6E6669672E687565203D2025640A0029
:100440007267686C696768745F636F6E6669672E50
:100450006D6F6465203D2025640A007267626C69D7
:100460006768745F636F6E6669672E656E61626C44
:1004700065203D2025640A007267626C69676874B4
:100480005F636F6E66696720454550524F4D3A0A6B
:10049000007267626C696768745F696E6974207264
:1004A00067626C696768745F636F6E6669672E6DFB
:1004B0006F6465203D20302E20577269746520647A
:1004C000656661756C742076616C75657320746FF8
:1004D00020454550524F4D2E0A007267626C696785
:1004E00068745F696E6974206565636F6E666967BD
:1004F000206973206E6F7420656E61626C65642E76
:100500000A007267626C696768745F696E6974205B
:100510007374617274210A007267626C696768742F
:100520005F696E69742063616C6C65642E0A005BA0
:10053000735D000A0025303862003A200025303211
:1005400058000A722F632030313233343536370A7F
:100550000000047F3F1F643214643214783C1E1E76
:10056000140A050000C0C0C0C0C0C0C0F8F81E1EFC
:10057000FEFEF80000000000000000000000000087
:10058000000000000000000303030303FFFFFFFF60
:10059000FFFFFF80808080808080808080808080DE
:1005A0008080000000000000000000007F7FFFFF4F
:1005B000FFFFFF9F9F87878181816161191907076D
:1005C0000101000000000000000000000000010127
:1005D00061617F010161617F010100000000000095
:1005E000000000000000000000000000000000000B
:1005F00000000000000000000000000000000000FB
:1006000000000000000000000000000000000000EA
:1006100000000000000000000000000000000000DA
:1006200000000000000000000000000000000000CA
:1006300000000000000000000000000000000000BA
:1006400000000000000000000000000000000000AA
:10065000000000000000000000000000000000009A
:10066000000000000000000000000000000000008A
:10067000000000000000000000000000000000007A
:10068000000000000000000000000000000000006A
:10069000000000000000000000000000000000005A
:1006A000000000000000000000000000000000004A
:1006B000000000000000000000000000000000003A
:1006C000000000000000000000000000000000002A
:1006D000000000000000000000000000000000001A
:1006E000000000000000000000000000000000000A
:1006F00000000000000000000000000000000000FA
:1007000000000000000000000000000000000000E9
:1007100000000000000000000000000000000000D9
:1007200000000000000000000000000000000000C9
:1007300000000000000000000000000000000000B9
:1007400000000000000000000000000000000000A9
:100750000000000000000000000000000000000099
:100760000000000000000000000000000000000089
:100770000000000000000000000000000000000079
:100780000000000000000000000000000000000069
:100790000000000000000000000000000000000059
:1007A0000000000000000000000000000000000049
:1007B0000000000000000000000000000000000039
:1007C0000000000000000000000000000000000029
:1007D0000000000000000000000000000000000019
:1007E0000080808080808080F0F03C3CFCFCF00049
:1007F00000000000000000000000000000000000F9
:100800000001010707070707FFFFFEFEFFFFFF00CC
:1008100000000000000000000000000000000000D8
:100820000000000000000000FFFFFFFFFFFFFF3F90
:100830003F0F0F030303C3C333330F0F0303000042
:1008400000000000000000000000030363637F035A
:100850000363637F0303000000000000000000004A
:100860000000000000000000000000000000000088
:100870000000000000000000000000000000000078
:100880000000000000000000000000000000000068
:100890000000000000000000000000000000000058
:1008A0000000000000000000000000000000000048
:1008B0000000000000000000000000000000000038
:1008C0000000000000000000000000000000000028
:1008D0000000000000000000000000000000000018
:1008E0000000000000000000000000000000000008
:1008F00000000000000000000000000000000000F8
:1009000000000000000000000000000000000000E7
:1009100000000000000000000000000000000000D7
:1009200000000000000000000000000000000000C7
:1009300000000000000000000000000000000000B7
:1009400000000000000000000000000000000000A7
:100950000000000000000000000000000000000097
:100960000000000000000000000000000000000087
:100970000000000000000000000000000000000077
:100980000000000000000000000000000000000067
:100990000000000000000000000000000000000057
:1009A0000000000000000000000000000000000047
:1009B0000000000000000000000000000000000037
:1009C0000000000000000000000000000000000027
:1009D0000000000000000000000000000000000017
:1009E0000000000000000000000000000000000007
:1009F00000000000000000000000000000000000F7
:100A000000000000000000000000000000000000E6
:100A100000000000000000000000000000000000D6
:100A200000000000000000000000000000000000C6
:100A300000000000000000000000000000000000B6
:100A400000000000000000000000000000000000A6
:100A50000000000000000000000000464E320A00C6
:100A60005247420A0046554E430A00424153450A46
:100A7000000A004D4F44450A002D2D2D2D2D0A0052
:100A80004455434B0A424F4152440A006F6C65641F
:100A90005F72656E646572393020646174612066CE
:100AA00061696C65640A006F6C65645F72656E6491
:100AB00065722064617461206661696C65640A0016
:100AC0006F6C65645F72656E646572206F666673D5
:100AD000657420636F6D6D616E64206661696C651D
:100AE000640A000A0025303258006B6579626F6134
:100AF00072645F7365745F6C65643A20007267624C
:100B00006C696768742064697361626C65205B4E10
:100B10004F454550524F4D5D3A207267626C696790
:100B200068745F636F6E6669672E656E61626C657F
:100B3000203D2025750A007267626C696768742021
:100B4000656E61626C65205B4E4F454550524F4D5E
:100B50005D3A207267626C696768745F636F6E6686
:100B600069672E656E61626C65203D2025750A00FF
:100B70007267626C6967687420736574207370654E
:100B80006564205B4E4F454550524F4D5D3A2025E0
:100B9000750A0000010101010101010101020202C7
:100BA0000202020202020303030303030303040419
:100BB00004040404040505050505060606060607E3
:100BC0000707070708080808090909090A0A0A0B9C
:100BD0000B0B0C0C0C0D0D0D0E0E0E0F0F0F10103D
:100BE00011111112121313141415151616171718C4
:100BF0001819191A1A1B1B1C1D1D1E1E1F2020212F
:100C00002222232424252626272829292A2B2C2D75
:100C10002D2E2F30313232333435363738393A3B96
:100C20003C3D3E3F404142434445464748494A4C8B
:100C30004D4E4F50515354555658595A5B5D5E5F57
:100C4000616264656668696B6C6D6F7072737577ED
:100C5000787A7B7D7E8082838587888A8C8E8F914F
:100C6000939596989A9C9EA0A2A3A5A7A9ABADAF79
:100C7000B1B3B5B7BABCBEC0C2C4C6C9CBCDCFD163
:100C8000D4D6D8DBDDDFE2E4E7E9EBEEF0F3F5F80C
:100C9000FAFDFF7267626C696768742074696D653C
:100CA0007220656E61626C65642E0A007267626C08
:100CB00069676874206D6F6465205B4E4F454550D1
:100CC000524F4D5D3A2025750A007267626C696764
:100CD0006874206D6F6465205B454550524F4D5DD3
:100CE0003A2025750A007267626C69676874207320
:100CF000657420687376205B4E4F454550524F4DCA
:100D00005D3A2025752C25752C25750A00726762C1
:100D10006C696768742073657420687376205B451E
:100D20004550524F4D5D3A2025752C25752C257563
:100D30000A007267626C69676874207261696E622A
:100D40006F7720736574206873763A2025642C25AC
:100D5000642C25642C25750A00FFAA7F5540726714
:100D6000626C696768742074696D65722064697368
:100D700061626C652E0A002223252628292A2C2D43
:100D80002F3032333536383A3B3D3E4042434547BB
:100D9000494A4C4E5051535557595A5C5E606264F3
:100DA0006668696B6D6F71737577797B7D7F818301
:100DB0008587898A8C8E90929496989A9C9E9FA102
:100DC000A3A5A7A8AAACAEAFB1B3B4B6B8B9BBBC23
:100DD000BEBFC1C2C3C5C6C7C9CACBCCCDCED0D198
:100DE000D2D2D3D4D5D6D7D7D8D9D9DADADBDBDB90
:100DF000DCDCDCDCDCDDDDDDDDDCDCDCDCDCDBDB31
:100E0000DBDADAD9D9D8D7D7D6D5D4D3D2D2D1D084
:100E1000CECDCCCBCAC9C7C6C5C3C2C1BFBEBCBB81
:100E2000B9B8B6B4B3B1AFAEACAAA8A7A5A3A19FF9
:100E30009E9C9A98969492908E8C8A8987858381BD
:100E40007F7D7B79777573716F6D6B69686664629E
:100E5000605E5C5A5957555351504E4C4A4947456C
:100E60004342403E3D3B3A3836353332302F2D2C0D
:100E70002A2928262523226F6C65645F6F6E206304
:100E80006D64206661696C65640A0000AF6F6C6513
:100E9000645F6F666620636D64206661696C65647B
:100EA0000A0000AE00000153540055005600000037
:100EB0002400250026005700000021002200230006
:100EC0005700A8001E001F00200028002A0027004D
:100ED0002700370028000000015301000100010035
:100EE00000004A0052004B000100000050000100C9
:100EF0004F00010001004D0051004E00010002535F
:100F0000010049004C00010000000100C25CC35C0C
:100F100001000000C55CC75CC95C01000000C65C44
:100F2000C85CCA5C0100005C010001000100010016
:100F30000253005C010001000100000001000100FB
:100F4000010001000000010001000100010000009B
:100F50000100010001000100010001000100010089
:100F60000100010001000100010001006164645FF3
:100F70006B65795F6269743A2063616E27742061E2
:100F800064643A20253032580A0064656C5F6B65F2
:100F9000795F6269743A2063616E27742064656CBE
:100FA0003A20253032580A005B435D005B445D0007
:100FB0005B535D005B575D005B525D0009027B0087
:100FC000040100A0FA090400000103010100092145
:100FD000110100012240000705810308000A0904ED
:100FE000010002030000000921110100012222007A
:100FF00007058203200001070503032000010904FF
:1010000002000103000000092111010001226D000E
:101010000705840320000A090403000203000000FE
:10102000092111010001222200070585032000018A
:10103000070505032000011201000200000008421C
:10104000446264010001020001140364007500633E
:10105000006B0062006F0061007200640000001409
:101060000364006F006F00640062006F0061007233
:1010700000640000000403090407087F0807003E1D
:101080005B4F5B3E003E6B4F6B3E001C3E7C3E1C4C
:1010900000183C7E3C18001C577D571C001C5E7FCE
:1010A0005E1C0000183C180000FFE7C3E7FF0000CB
:1010B0001824180000FFE7DBE7FF0030483A060E6F
:1010C00000262979292600407F05050700407F0575
:1010D000253F005A3CE73C5A007F3E1C1C08000894
:1010E0001C1C3E7F0014227F2214005F5F005F5FA4
:1010F0000006097F017F00006689956A00606060D4
:1011000060600094A2FFA2940008047E040800100E
:10111000207E20100008082A1C0800081C2A080845
:10112000001E10101010000C1E0C1E0C0030383E5B
:10113000383000060E3E0E060000000000000000E1
:10114000005F000000000700070000147F147F14F8
:1011500000242A7F2A1200231308646200364956AD
:10116000205000000807030000001C22410000007E
:1011700041221C00002A1C7F1C2A0008083E080887
:1011800000008070300000080808080800000060B7
:101190006000002010080402003E5149453E000056
:1011A000427F4000007249494946002141494D3380
:1011B000001814127F10002745454539003C4A4964
:1011C0004931004121110907003649494936004695
:1011D0004949291E000000140000000040340000AE
:1011E00000000814224100141414141400004122B9
:1011F0001408000201590906003E415D594E007C69
:101200001211127C007F49494936003E414141227A
:10121000007F4141413E007F49494941007F090922
:101220000901003E41415173007F0808087F00001A
:10123000417F4100002040413F01007F08142241CE
:10124000007F40404040007F021C027F007F040876
:10125000107F003E4141413E007F09090906003EE2
:101260004151215E007F091929460026494949322A
:101270000003017F0103003F4040403F001F20402A
:10128000201F003F4038403F0063140814630003F0
:1012900004780403006159494D4300007F414141F6
:1012A00000020408102000004141417F00040201B7
:1012B00002040040404040400000030708000020B6
:1012C00054547840007F284444380038444444282B
:1012D00000384444287F0038545454180000087ED5
:1012E00009020018A4A49C78007F08040478000078
:1012F000447D4000002040403D00007F1028440015
:101300000000417F4000007C04780478007C0804E1
:10131000047800384444443800FC18242418001889
:10132000242418FC007C0804040800485454542465
:101330000004043F4424003C4040207C001C20402A
:10134000201C003C4030403C004428102844004C05
:101350009090907C004464544C4400000836410056
:101360000000007700000000413608000002010282
:101370000402003C2623263C000000000000004040
:101380004040F0F8F8FF38FFF8F83FF8F8FF38FF72
:10139000F8F8F040404000000000000080C0C0C0ED
:1013A000800000C0C08000000080C0C000C0C0003D
:1013B0000080C0C00000000000C0C0C0C0C000C0AD
:1013C000C00000000000000000000000000000005D
:1013D000000000000000000000000000000000000D
:1013E00000000000000000000000000000000000FD
:1013F0000000000000000000C0F0F8FC3E1E0601E6
:101400000000007F4141417F007F4141417F00005A
:1014100080C0E07E5B4F5BFEC00000C000DCD7DE1A
:10142000DEDED7DC00C0000000000000000000008D
:101430000000000000000000000000000000004963
:101440004949FFFFFFFFE0DFBFBF00BFBFDFE0FF95
:10145000FFFFFF49494900000000001F3F6060E0B6
:10146000BF1F007F7F071E381E077F7F007F7F0E14
:101470001F3B716000000000007F7F0C0C0C007EA1
:101480007E007F7E0303007F7E03037E7E03037F57
:101490007E000F3E703C063C703E0F00327B494997
:1014A0003F7E007F7E0303001E3F69696F260000B8
:1014B0000000000000000000030F1F3F3C78706038
:1014C0000000007F4141417F007F4141417F00306A
:1014D0007B7F7830202030787F3B0003000F7F0F28
:1014E0000F0F7F0F0003000000000000000000004D
:1014F00000000000000000000000000000000001EB
:101500000101070F0F7F0F7F0F0F7E0F0F7F0F7FE0
:101510000F0F0701010100000000000000000000A3
:1015200001010000000000000000000000000000B9
:1015300000000000000000000000000000000000AB
:10154000000000000000000000000000000000009B
:10155000000000000000000000000000000000008B
:10156000000000000000000000000000000000007B
:10157000000000000000000000000000000000006B
:10158000000000000000000000000000000000005B
:10159000000000000000000000000000000000004B
:1015A000000000000000000000000000000000003B
:1015B0000000000000000000000011241FBECFEF5B
:1015C000DAE0DEBFCDBF04B603FE27C08091D904A8
:1015D0009091DA04A091DB04B091DC048730904B49
:1015E000A740B04BD1F41092D9041092DA041092B3
:1015F000DB041092DC0414BE84B7877F84BF0FB66F
:10160000F894A895809160008861809360001092A2
:1016100060000FBEE0E0F8E3099511E0A0E0B1E062
:10162000ECE0FAE602C005900D92AE3AB107D9F7A8
:1016300024E0AEEAB1E001C01D92A93DB207E1F796
:101640000E94C42A0C94CD340C940000FF93EF93B5
:10165000E091AE01F091AF01309709F00995EF915B
:10166000FF910895FC018591803011F0EFDFFBCFF1
:101670000895FF27E0E230E247FF0CC0419597FF55
:1016800009C0EDE26095709580959095611D711D82
:10169000811D911D27FF02C0219530E350E2AA274A
:1016A000660F771F881F991FAA1FA41710F0A41B8D
:1016B00063955A95A9F7AA3008F0A95FA05DAF938A
:1016C000F395611571058105910541F7ED3211F42E
:1016D000EF93F395F21718F43F93F395FBCF8F91A7
:1016E000B5DFFA95E1F70895E991F9918591803098
:1016F00021F0853219F0AADFF9CF089520E0E894AF
:1017000055915532C1F3503311F4689455915A33C1
:1017100048F4505390F3220F022E220F220F200D77
:10172000250FF4CF0EF4219589919991533619F331
:10173000533729F1533559F1BC0188279927E8948B
:101740005C3621F48991999168945591543639F415
:1017500046EF7EF077FF0DC08FEF9FEF0AC0553741
:101760004AE039F0583540E121F0523642E009F0C4
:101770000895FF93EF937DDFEF91FF91B7CFFF9334
:10178000EF93FC0181918030B9F360DFFBCFFF93D1
:10179000EF9368DFF1CFDF93CF93CDB7DEB7259618
:1017A000A3DFCF91DF910895E8EDF0E080818E7F97
:1017B00080831092E2001092DA001092E100A0EE15
:1017C000B0E08C9181608C9380818F77808319BC8D
:1017D000A7EDB0E08C918E7F8C9380818F7E80838B
:1017E00010929B0208952091E4003091E50095E667
:1017F000A9012091EC00822F817020FF06C080910A
:10180000E80080FF06C080E008952091E80022FDF6
:101810001AC08091C002882389F0853089F08091B8
:10182000EB0085FD0FC02091E4003091E5004217E8
:101830005307F9F29150E1F684E0089582E00895AB
:1018400083E0089581E00895EF92FF920F931F9334
:10185000CF937C018B010E94F30BC82F811117C01D
:101860008091E80085FD0BC08091E8008E77809321
:10187000E8000E94F30B882399F3C82F08C0F701F2
:1018800081917F018093F1000150110949F78C2F5C
:10189000CF911F910F91FF90EF9008958091C20218
:1018A00087FF13C08091E80082FF06C08091E800A6
:1018B0008B778093E80004C08091C0028111F2CF41
:1018C00008958091C0028823D9F38091E80080FFB9
:1018D000F8CF8091E8008E77ECCF982F9093E900B5
:1018E000242F762F50E0891731F07091EC00209171
:1018F000ED005091F00021FD07C09F5F973071F718
:101900008093E90081E008953091EB003E7F3093B1
:10191000EB003091ED003D7F3093ED003091EB0016
:1019200031603093EB007093EC002093ED00509306
:10193000F0002091EE0027FDE0CF80E00895CF92E7
:10194000DF92EF92FF920F931F93CF93DF93C8ED37
:10195000D0E088818F7E8883E7EDF0E08081816030
:10196000808384E082BF81E080939B0288818E7FA8
:10197000888302EE10E0F80110821092DA0081EE06
:10198000C82ED12CF601108288818F7788838881B8
:101990008068888388818F7D888319BC1092C002FB
:1019A0001092C1021092BF021092BE0290EEE92E78
:1019B000F12CF70180818B7F80838881816088830F
:1019C00042E060E080E00E946D0CF60180818E7F35
:1019D0008083F8018081816080838081886080833A
:1019E000F70180818E7F8083888180618883DF9189
:1019F000CF911F910F91FF90EF90DF90CF900895BE
:101A0000FC018091C8029091C90286179707A0F047
:101A10006115710529F49091E8009E779093E80094
:101A200090E06115710551F4911108C08091E800B2
:101A300082FF34C080E00895BC01F2CF8091C002E3
:101A40008823C1F18530C1F18091E80083FD30C069
:101A50008091E80082FDEACF8091E80080FFE1CF2D
:101A60008091F3002091F200382F6115710519F073
:101A70002830310558F091E02830310509F090E028
:101A80002091E8002E772093E800CBCF81918093BE
:101A9000F100615071092F5F3F4FE7CF8091C00285
:101AA000882341F0853041F08091E80083FFBECF6C
:101AB00081E0089582E0089583E0089508950895EF
:101AC000089580919D02089587E797E79093010814
:101AD0008093000888E19AE00FB6F894A895809367
:101AE00060000FBE90936000FFCF2FB7F894609115
:101AF0008F027091900280919102909192022FBF7B
:101B0000089520918B0230918C022817390771F0CB
:101B100090938C0280938B02E0918902F0918A026B
:101B2000309721F00084F185E02D099408952091EB
:101B30008702309188022817390771F09093880244
:101B400080938702E0918902F0918A02309721F018
:101B50000680F781E02D09940895E0918902F091C3
:101B60008A02309721F00190F081E02D099480E005
:101B70000895FA01811101C0FB01099480917C0252
:101B8000982F9E7F29F48170826080937C02089553
:101B90008A34E8F381708864F8CFAF92BF92DF9205
:101BA000EF92FF920F931F93CF93DF93082F162F7F
:101BB000E901E42FF0E0ED56F44F611110C0E4911B
:101BC0005E2F4E2F4983E8835A83DF91CF911F9177
:101BD0000F91FF90EF90DF90BF90AF900895E62EA9
:101BE000F12C4491D42EE42FF0E026E0829FC00136
:101BF00011242FEF30E0B9010E94CE33802F90E006
:101C0000880F991F55E5569FD001579FB00D11249D
:101C10008A1B9B0B982F990F890F5901AE18BF088B
:101C2000AE9ED001AF9EB00DBE9EB00D11245B2FB5
:101C3000189F80011124012F11275901A01AB10A00
:101C4000AE9E8001AF9E100DBE9E100D1124590155
:101C5000A81AB108AE9CC001AF9C900DBE9C900D1F
:101C60001124892F9927281B390B2E9FC0012F9FE4
:101C7000900D3E9F900D1124E92F62307105A1F067
:101C800050F46115710509F49DCF6130710581F043
:101C9000EB2F512F97CF6430710569F080F06630DB
:101CA000710509F48FCFF4CFE42F4B2F592F8ACF32
:101CB000E42F412F87CFEB2F542F492F83CF4B2F6A
:101CC0005D2DE12F7FCFF894E82FE295EF70F0E0E3
:101CD00031A1282F2F7081E090E001C0880F2A9554
:101CE000EAF7982F9095932391A392A1892B82A331
:101CF000789408959091930292FF06C0282F28713E
:101D00002830F9F4877F846093FF06C0282F28715C
:101D10002831F1F4877E84612091940220FF06C06F
:101D2000382F38713830D9F4877F816021FF06C0A1
:101D3000282F28712831D1F4877E816194FD877E18
:101D40000895282F24712430F9F68B7F8860DCCF2A
:101D5000282F2471243101F78B7E8861DDCF382F45
:101D60003171313019F78E7F8860E0CF282F2171D3
:101D7000213121F78E7E8861E1CFCF93DF93EC0193
:101D800082389105A9F1D8F58133910509F496C0FF
:101D900048F58932910509F48AC08A9709F495C0FB
:101DA000C11522E5D20708F0B6C0C11531E5D30749
:101DB00008F026C1C83ED10508F09CC0C03ED10540
:101DC00060F5C83AD10508F087C0C53AD10508F0DA
:101DD000EFC0C130D10509F12097F9F0C430D10529
:101DE000E0F440C08533910509F45AC0C997C1F6A3
:101DF00080919302837089F0C0EED0E00EC0833EE4
:101E0000910599F170F4803E910501F1823E9105B2
:101E100039F68091930282FD21C0CE01DF91CF91EE
:101E20000895863E910561F1873E910571F1843EEA
:101E3000910509F0B5CF8091940281FFEECF80919A
:101E40009302C7EED0E084FD0DC0E7CF80919302EE
:101E500080FD07C19091940290FFDFCFC3EED0E0E8
:101E600084FFDBCFD0E0C0E0D8CF8091930282FD29
:101E7000FBC09091940290FDBFCF84FFCECFF2CFF4
:101E80008091930283FDDDCFC8CF8091930283FDC3
:101E9000EEC09091940291FFF0CFC4EED0E0BDCFA0
:101EA0008091930285FFB9CFC9E2D0E0B6CF80918F
:101EB000930285FFB2CFC5E3D0E0AFCF809193020C
:101EC00086FFABCFCAE2D0E0A8CF8091930286FF15
:101ED000A4CFC1E3D0E0A1CFCF3BD10518F6C85ABB
:101EE000D0E0CC0FDD1FCB5DDE4F0990D881C02D37
:101EF000D46493CFC11540E5D40708F064C0C11580
:101F000080E4D80708F05CC0CE019A9581159F4106
:101F100008F483CFA7CFC11536E5D30718F5C1154F
:101F200045E5D40708F084C0C11584E5D80708F05A
:101F30007AC09C2F969596959E0123703327C115E4
:101F4000D34508F462C0C1E0D0E002C0CC0FDD1F71
:101F50002A95E2F730E2939FC0011124C82BD92BB8
:101F6000DA685BCFC1158AE5D80778F4C11599E521
:101F7000D90708F068C0C11528E5D20708F472CF68
:101F8000DC2FCC27C06FD06A48CFCE019056811588
:101F9000904208F067CF8D2F8F710E947A0E90E0EB
:101FA000982F882788279F719C012C2BE90149C015
:101FB000C55AD0E0CE5DDE4FC881D0E0D0642DCFD1
:101FC000DF70D06A2ACFCE01E4E096958795EA9536
:101FD000E1F783702C2F26952695237040E2249FED
:101FE00090011124382B8C2F8370C1E0D0E002C007
:101FF000CC0FDD1F8A95E2F7C22BD32BDC680DCF07
:10200000DC2FCC27C16FD06A08CFC1E0D0E002C07E
:10201000CC0FDD1F2A95E2F720E2929FC001112428
:10202000C82BD92BEBCFDC2FCC27C46FD06AF5CED1
:102030008C2F0E947A0EC82FD0E0DC2FCC27CC2723
:10204000DF71D062EACE8C2F8F700E947A0E34E05E
:10205000D695C7953A95E1F7CF709C2FEC01D069E2
:10206000DCCEC9E3D0E0D9CEC2EED0E0D6CEC6EE0B
:10207000D0E0D3CE809119028111109219020895F7
:10208000809590911802982390931802089580915A
:1020900014029091E301981301C008958F5F877037
:1020A000FACFE92FEE0FEE0F9E0F890F982F977042
:1020B00086958695869523E0829FF0011124EF5244
:1020C000FE4F50E040E080E0219130E0092E02C058
:1020D000369527950A94E2F721703327042E01C024
:1020E000220F0A94EAF7822B4F5F5F4F433051056E
:1020F00059F70895E92FEE0FEE0F9E0F890F982FD5
:10210000977041E001C0440F9A95EAF7869586954D
:10211000869593E0899FF0011124EF52FE4F30E045
:1021200020E070E05191DF011197CB01022E02C037
:10213000969587950A94E2F7817081958527842387
:1021400085278C932F5F3F4F2330310559F7089532
:10215000829590E09C01220F331F220F331F2C7CAD
:1021600095958795959587958373282B30E0C901C0
:10217000880F991F8A7A359527952575822B0895A2
:10218000982F92959F7011F0892F94E0282F269513
:10219000269511F09E5F822F869509F09F5F892F0B
:1021A0000895CF93DF93C091D704D091D8048A309B
:1021B000C1F42091CE02CE01815D9240622F70E089
:1021C0000E94CE33281B822F66E00E94E233C82F84
:1021D000C15018F4DF91CF91089580E20E94D11090
:1021E000F7CF8D30E9F4C15DD2402091CE02622F4D
:1021F00070E0CE010E94CE33281B822F9E01280F53
:10220000311D2115324018F080E0D0E0C0E0C80F49
:10221000D11DCF52DD4FD093D804C093D704DACF6D
:1022200096E0FE01A1EDB4E001900D929A95E1F7E0
:10223000803E08F458C086E0FE0111928A95E9F7C5
:10224000C091D704D091D80446E050E0BE0181EDA2
:1022500094E00E9478349E01215D3240892B41F147
:10226000C90145E0969587954A95E1F741E050E030
:10227000BA0102C0660F771F8A95E2F7CB01609121
:10228000CF027091D002862B972BB9016B5F7F4FE5
:10229000E5E076956795EA95E1F702C0440F551F92
:1022A0006A95E2F7842B952B9093D0028093CF020E
:1022B0002A5F3F4F4091CE02642F70E0C9010E9417
:1022C000CE33481B463010F4240F311D211572E027
:1022D000370710F030E020E02F523D4F3093D80404
:1022E0002093D70477CFF6E08F9FB0011124675871
:1022F0007F4E46E050E0CE010E946234A1CFCF93E2
:10230000DF93EC01FE018491811103C0DF91CF9135
:1023100008950E94D1102196F5CFCF92DF92EF92CF
:10232000FF920F931F93CF93DF936C017B0164E6C1
:1023300070E088E70E94CD32EC0197FD12C010E0FA
:1023400000E0F601E00FF11F849164E670E00E9466
:102350004733EC01892B29F40F5F1F4F0E151F0522
:1023600081F70E94CA33CE01DF91CF911F910F9167
:10237000FF90EF90DF90CF9008958091850290912B
:102380008602911103C091E089270895882389F07E
:1023900062E070E082EA9EE00E948D11892B39F0A4
:1023A0008DE89EE00E94320B809185020895109284
:1023B000850280918502E7CFCF93C09185028091FD
:1023C00086028823F1F00E94750D605A75418F4F87
:1023D0009F4F609381027093820280938302909357
:1023E0008402C1110CC062E070E08BE89EE00E94A4
:1023F0008D11892B49F087E79EE00E94320BC09136
:1024000085028C2FCF91089581E080938502F7CFCC
:102410009FB7F894109299029FBF9091C002943098
:1024200009F048C02091E9002F703091EC00932F03
:10243000917030FD90E8922B25E02093E9002091E7
:10244000EB0020FF34C02091EE0027FF30C0209128
:102450009802222321F02091E80025FF28C0109245
:10246000980226E03091E80035FF14C08093F10017
:102470008091E80085FD27C08091E80080FFFCCFB7
:102480008091E8008E778093E8009F709093E90038
:1024900080E008953091C002343049F43091EB006F
:1024A00035FD05C0215041F481E0809398029F7072
:1024B0009093E9008FEF0895EFE9FFE03197F1F78E
:1024C00000C00000CFCF8FB7F89421E0209399028D
:1024D0008FBFDBCF80939502709397026093960233
:1024E0008091C0028430F9F48093E9008FEF9091DD
:1024F000E800815095FD06C095ED9A95F1F7000032
:102500008111F5CF8091E80085FF0DC050E040E0DB
:1025100063E070E085E992E00E94240C8091E8007D
:102520008E778093E8000895BC0184E00C946A12D1
:10253000BC0183E00C946A12CF93DF93EC0180918D
:1025400021018823B1F18091930287FF32C060E2BC
:1025500084E08093E9008FEF9091E800815095FD31
:1025600006C095ED9A95F1F700008111F5CF8091A5
:10257000E80085FF1BC08091210170E050E040E041
:10258000811104C050E040E068E070E0CE010E949C
:10259000240C8091E8008E778093E80080E2FE01B1
:1025A000AEE9B2E001900D928A95E1F7DF91CF910B
:1025B000089568E081E0CDCF80917C0280FD0AC063
:1025C000E4E6F2E0118210821282339652E0EC3798
:1025D000F507C1F7539A3BB1377F2BB128604FB74E
:1025E000F89484E692E0FC015191CF0168E02BB9A8
:1025F000000000C057FF3BB9550F000000C000C0ED
:1026000000C03BB900C06A9591F7F2E08C379F0794
:1026100051F74FBF8FE594E00197F1F700C000003C
:102620000895EF92FF920F931F93CF93DF938C0146
:10263000C4E6D2E0F12CE12CF801948160917E0295
:1026400080917D02F4E0EF16F104FCF49923F9F097
:102650009E0140917F020E94CD0D2FEFE21AF20AF7
:10266000239688E0E816F10439F70E94DC12F8019D
:10267000848190E00196817099278483DF91CF91C6
:102680001F910F91FF90EF900895992309F39E01F8
:1026900040E0E1CF8F929F92AF92BF92CF92DF92B4
:1026A000EF92FF920F931F93CF93DF93EC014C8136
:1026B000042F10E09801D8010E9439349B01AC012D
:1026C0000E944F344B015C01E0E2F0E0E01BF10BB3
:1026D000A5E5B0E0AC019B010E944F346B017C0189
:1026E0009F01DF010E9431349B01AC010E945A34EA
:1026F0009B01AC01280D391D4A1D5B1DC701B601A8
:102700000E940234F22E822F90E039E23F15D8F178
:1027100043E0249F9001112435952795122F1095A1
:1027200094E6C92E92E0D92E00E085E5E82EEF1858
:102730008E2D01FD8F2D9601412F60917E020E940A
:10274000CD0D0F5F53E0C50ED11C083089F70E94F4
:10275000DC129C8181E0992319F0903219F48FEFFB
:102760008093200180912001890F8C83DF91CF918C
:102770001F910F91FF90EF90DF90CF90BF90AF909F
:102780009F908F90089525E530E0A901481B590BD3
:10279000CA019A01220F331F280F391F37FFBCCF00
:1027A0002F5F3F4FB9CF0F931F93CF93DF93C4E6B3
:1027B000D2E0FE01118210821282339682E0EC3761
:1027C000F807C1F710E000E080916202082E000CCB
:1027D000990B081719078CF180911F01082E000C26
:1027E000990B801791074CF19E0140917F026091F7
:1027F0007E0280917D020E94CD0D0F5F1F4F2396B8
:102800000830110509F70E94DC1280911E01909199
:102810006202980F9093620220911F01280F20936B
:102820001F01121614F497301CF0819580931E013D
:10283000DF91CF911F910F910895198218821A820A
:10284000DCCFCF92DF92EF92FF920F931F93CF9343
:10285000DF93FC018281DD24DA9480FD02C0DD2457
:10286000D394C4E6D2E010E000E0198218821A8204
:1028700094E0E92EF12CC12C809161028C0D8930FD
:10288000CCF18770082E000C990B8017910791F4FA
:1028900080917F028E9DA0018F9D500D1124559532
:1028A0004795559547959E0160917E0280917D02E6
:1028B0000E94CD0DCD0CF1E0EF1AF108E9F60F5FA3
:1028C0001F4F23960830110581F60E94DC1280917B
:1028D000610291E0D91214C0811110C087E0809389
:1028E0006102DF91CF911F910F91FF90EF90DF90E8
:1028F000CF90089587FFC6CF885FC4CF8150EFCFB8
:1029000090E0019687709927EACFEF92FF921F938C
:10291000CF93DF93EC0184E6E82E82E0F82E10E0FE
:102920008C81970140917F0260917E02810F0E940D
:10293000CD0D115E83E0E80EF11C183F89F70E946F
:10294000DC129A818C8190FF08C08F5F8C83DF91AD
:10295000CF911F91FF90EF9008958150F7CF909104
:102960007C0290FF0CC0E4E6F2E081836083428346
:10297000339692E0EC37F907C1F70C94DC12089516
:102980000F931F93CF93DF9300D00F92CDB7DEB795
:102990008C018091630281110AC09E012F5F3F4F1D
:1029A0004FEF6FEF0E94CD0D8A8180936302F80193
:1029B0006481613069F08091630240E0662361F0D8
:1029C00040E0623011F44091630280E060E004C0B6
:1029D0006091630240E080E00E94AF14F8018481BE
:1029E00090E0019663E070E00E94EE3384830F90E4
:1029F0000F900F90DF91CF911F910F910895CF937A
:102A0000DF9300D00F92CDB7DEB790917C0290FF9C
:102A10000AC09E012F5F3F4F0E94CD0D4B816981FF
:102A20008A810E94AF140F900F900F90DF91CF9189
:102A30000895CF93DF93EC01ECE7F2E043816281EC
:102A40008C810E94FF148C818F5F8C83DF91CF91EA
:102A50000895CF93DF93EC01EC81F0E0E958F24F59
:102A60004491ECE7F2E0628181810E94FF148C8145
:102A70008F5F8C83DF91CF910895209121012223D4
:102A800051F12091930227FF26C0E62FE695E695A7
:102A9000E695EE3178F4E80FF92FF11D677021E02B
:102AA00030E001C0220F6A95EAF720958281282341
:102AB0002283089580918D0280FF19C01F926F9329
:102AC0008AE89FE09F938F930E94CB0B0F900F900B
:102AD0000F900F900895FC01329608962191621391
:102AE00003C0DF0111971C92E817F907B9F70895A1
:102AF00020912101222349F12091930227FF25C033
:102B0000E62FE695E695E695EE3170F4E80FF92F9D
:102B1000F11D677021E030E001C0220F6A95EAF7ED
:102B20008281822B8283089580918D0280FF1EC056
:102B30001F926F938CE69FE09F938F930E94CB0B25
:102B40000F900F900F900F900895FC0132962FEF89
:102B500030E04191641751F02F3F19F4411101C049
:102B6000232F3F5F3630A9F72F3F09F40895820FD6
:102B7000911D27FD9A95FC016283089510926002D1
:102B800080918D0280FF08C08EE59DE09F938F931A
:102B90000E94CB0B0F900F900895EF92FF920F932E
:102BA0001F93CF93DF938091180290911702892B86
:102BB00090911602892B8093B0019091190299236C
:102BC000B1F0892B8093B00180912101882309F411
:102BD0005DC08091930287FF59C08EE1E2EBF1E086
:102BE00090E0815008F054C091110E943A10E09199
:102BF0008902F0918A02309709F450C08091210136
:102C0000882359F08091930287FF07C08091B0011B
:102C10008093B10186E08093B0010280F381E02DC2
:102C200080EB91E0099580918D0282FF37C080FF93
:102C300004C083E393E00E94320BC0EBD1E088EB49
:102C4000E82E81E0F82E0DE213E080918D0280FFE6
:102C50000BC088811F928F931F930F930E94CB0B01
:102C60000F900F900F900F902196EC16FD0669F7CC
:102C700080918D0280FF12C08BE293E0DF91CF91B3
:102C80001F910F91FF90EF900C94320B86E0A6CF2E
:102C90002191222309F4A5CF9F5FA3CFDF91CF918C
:102CA0001F910F91FF90EF90089590E080E00E94B7
:102CB000970D90E080E00E94810D10921702109213
:102CC00016020C94CD158093CD020C94551680916C
:102CD000CD02982F9670963019F488600C94631684
:102CE000877FFCCF21E030E001C0220F8A95EAF710
:102CF00020958091CD0282230C9463169091150249
:102D00008095892380931502282F277091F4282F0E
:102D1000082E000C330B9217130659F09091940271
:102D200092FD07C08595859585950E947216109233
:102D30001502089521E030E001C0220F8A95EAF7DC
:102D40008091CD02822B0C94631680931A020C940E
:102D500055161092180280912101E2EBF1E08823D0
:102D600059F08091930287FF07C08EE1DF011D9229
:102D70008A95E9F70C94551686E0F8CF1F93CF9308
:102D8000DF93CDB7DEB7AA970FB6F894DEBF0FBEBC
:102D9000CDBF82EC92E02091F100DC012D93CD01BA
:102DA000B2E08A3C9B07B9F78091C302833009F4F3
:102DB00072C0B8F4813009F449C0823009F4B3C05C
:102DC0008091E80083FF91C28091C2029091C3027A
:102DD0009A3008F08AC2E92FF0E0E153FB4C0C94E2
:102DE00024348A3009F48EC08B3009F471C08930E4
:102DF00039F78091C202813219F78091C602909111
:102E0000C702009711F00297D9F68091E800877FFA
:102E10008093E8008091E80082FF38C09091F30031
:102E20008091F200029731F48091F100813011F02D
:102E3000863021F48091F10080939D028091E8001A
:102E40008B778093E8000E944E0CBACF8091C2022B
:102E5000813A09F0B5CF8091E800877F8093E80040
:102E60008091C6029091C702892B61F460E28EE9DD
:102E700092E070E00E94000D8091E8008B778093D3
:102E8000E8009ECF60E090E080E0F3CF8091C00248
:102E90008111C0CF95CF8091C202813A09F090CFC5
:102EA0008091C6029091C702892B09F089CF809149
:102EB000E800877F8093E8008091E80080FFFCCFE6
:102EC000809121018093F1008091E8008E77B9CF45
:102ED0008091C202813209F073CF8091C602909135
:102EE000C702892B09F06CCF8091E800877F80931F
:102EF000E8000E944E0C8091C402809321010E9440
:102F0000A9165ECF8091C202813209F059CF80911B
:102F1000E800877F8093E8000E944E0C8091C502F4
:102F200080939C024DCF8091C202813A09F048CF34
:102F30008091E800877F8093E8008091E80080FF1F
:102F4000FCCF80919C02BECF803899F0823809F086
:102F5000CCC18091C6028F70873008F0C6C18093C3
:102F6000E9008091EB0085FB882780F91092E90049
:102F700006C08091BE029091BF0291118260909133
:102F8000E800977F9093E8008093F1001092F100A1
:102F90008091E8008E77A5C1882309F493C182301F
:102FA00009F0A3C18091C402811196C18091C6022B
:102FB0008F702FEF280F263008F097C18093E9001B
:102FC0002091EB0020FF88C1933031F48091EB0019
:102FD00080628093EB0080C19091EB0090619093B0
:102FE000EB0021E030E001C0220F8A95EAF7209340
:102FF000EA001092EA008091EB008860EACF81112C
:1030000074C11091C4021F778091E3008078812BF6
:103010008093E3008091E800877F8093E8000E941E
:103020004E0C8091E80080FFFCCF8091E300806827
:103030008093E30082E0111183E08093C00255C1C8
:103040008058823008F051C12091C4023091C502ED
:103050002C3DE3E03E07A1F583E08A838AE2898381
:103060004FB7F894DE01139620E03EE051E2E32FE3
:10307000F0E050935700E49120FF03C0E295EF7019
:103080003F5FEF708E2F90E0EA30C0F0C7968D93CF
:103090009D932F5F243159F74FBF8091E800877FC0
:1030A0008093E8006AE270E0CE0101960E94000D74
:1030B0008091E8008B778093E80017C1C096E7CF36
:1030C0008091C6029091C702432F55274330510586
:1030D00009F44AC078F54130510509F47AC08BE70C
:1030E00090E0ECEBFFE04230510509F0FEC020918A
:1030F000E800277F2093E8002091C8023091C902A0
:103100008217930708F49C0140E02115310509F06E
:1031100065C0411163C08091E80082FDC9CF8091F4
:10312000C002882329F2853019F28091E80083FFDC
:10313000F2CFBECF4132510509F43CC042325105B5
:1031400009F0D3C08430910508F0CFC0FC01EE0F28
:10315000FF1FE256FE4F0190F081E02D86569E4FF4
:10316000DC018C9190E01AC0332721303105D1F079
:103170002115310561F02230310509F0B6C0E9E4CE
:10318000F0E1E4918E2F90E0E9E4F0E107C0E5E79B
:10319000F0E1E4918E2F90E0E5E7F0E1009709F48B
:1031A000A4C0A5CFEFE5F0E1E4918E2F90E0EFE52C
:1031B000F0E1F4CF8430910508F097C0880F991F93
:1031C000FC01EA55FE4F0190F081E02D89E090E08E
:1031D0008ECF82E190E0E7E3F0E189CF8091C002F9
:1031E000882309F465CF853009F462CF8091E80027
:1031F00083FD5ECF8091E80082FD8DCF8091E80055
:1032000080FF83CF9091F3008091F200211531056A
:1032100019F08830910550F041E0089709F040E03E
:103220008091E8008E778093E8006FCF44914093BF
:10323000F1003196215031090196E8CF803809F02C
:1032400054C08091E800877F8093E8008091C1029C
:103250008093F1009DCE811148C01091C4021230BC
:1032600008F043C08091E800877F8093E8001093C6
:10327000C1020E944E0C112311F084E005C0809120
:10328000E30087FDFACF81E08093C00242E061EC69
:1032900081E00E946D0C42E261EC84E00E946D0CC2
:1032A00042E261EC82E00E946D0C42E260EC83E05D
:1032B0000E946D0C42E261EC85E00E946D0C8091F1
:1032C000C00213C08091C402813079F481E0933050
:1032D00009F080E08093BF021092E9008091E8003D
:1032E000877F8093E8000E944E0C8091E80083FF66
:1032F0000AC08091E800877F8093E8008091EB000E
:1033000080628093EB00AA960FB6F894DEBF0FBEE2
:10331000CDBFDF91CF911F910895882321F00E94A6
:1033200040100C94CD150895882339F0909118021F
:10333000982B909318020C94CD150895882341F191
:103340009CEF980F913A38F4682F80EB91E00E943F
:103350003D150C94CD1590E2980F983050F487707D
:1033600091E001C0990F8A95EAF7892F0E944010D9
:10337000F0CF9BE5980F933020F490E080E00C9420
:10338000970D885A873120F490E080E00C94810DED
:103390000895CF93C82F882309F467C08CEF8C0F52
:1033A000813AC0F580912101882311F18091930227
:1033B00087FF1EC0EC2FE695E695E695F0E0E05518
:1033C000FE4F828190E04C2F477021E030E002C038
:1033D000220F331F4A95E2F782239323892B91F022
:1033E0006C2F80EB91E00E943D150E94CD150AC024
:1033F000E2EBF1E088EB91E02191C21789F38E179F
:103400009F07D1F76C2F80EB91E00E947815CF9148
:103410000C94CD1580E28C0F883068F4C77021E0E1
:1034200030E001C0220FCA95EAF780911802822B82
:1034300080931802ECCFEBE5EC0FE33040F4F0E0C2
:10344000EE5DFE4F808190E0CF910C94970DC85AAD
:10345000C73158F4EC2FF0E0EE0FFF1FEB5DFE4F8D
:1034600080819181CF910C94810DCF9108951F930C
:10347000CF93DF93182FC4E1D0E0893311F4C0E576
:10348000D0E0812F0E94C9198FE99FE00197F1F7E1
:1034900000C000002197C1F7812FDF91CF911F91CC
:1034A0000C949E19CF93DF93CFEED0E060E0CE0175
:1034B0000E9499342196C11584E0D807B9F7DF91AD
:1034C000CF9108956F927F928F929F92AF92BF9209
:1034D000CF92DF92EF92FF920F931F93CF93DF93E0
:1034E00084EAC82E8EE0D82E93E6E92EF12CE7016F
:1034F000E29736011BC0F50185909490692DC801B3
:103500000E949934682DC80101960E94993482E086
:10351000A80EB11C0E5F1F4FC017D10761F78AE0DC
:10352000680E711C2A96CE15DF0529F08E010A500F
:1035300011095301E0CF7E0182E3E80EF11C82E322
:10354000C80ED11C8BE2E81681E0F80681F6DF9107
:10355000CF911F910F91FF90EF90DF90CF90BF9090
:10356000AF909F908F907F906F900895CF93C82FCA
:103570006FEF811162E283E290E00E9499346FEF75
:10358000C11161E084E290E00E9499346FEFC111B3
:1035900065E185E290E0CF910C94993480E00E943F
:1035A000B61A60E086E290E00E9499340E94621AA6
:1035B0000E94521A81E00C94B61ACF93DF93D82F51
:1035C000C0919402C2FB882780F98D1711F1D0FBBE
:1035D000C2F9C09394026091930284E090E00E944B
:1035E00099346C2F82E290E00E94993482E00E942C
:1035F0007E1680918D0280FF0CC01F92DF9386E1C2
:1036000093E09F938F930E94CB0B0F900F900F909E
:103610000F90DF91CF9108950F931F93CF93DF9376
:10362000C42FD0E0CC0FDD1F2AE0629FC00DD11D5A
:10363000112432E3839FC00DD11D1124CE01879642
:103640000E948534082F10E0102F0027CE018896A5
:103650000E9485349801282BC901DF91CF911F91D9
:103660000F910895462F843038F4753028F4653072
:1036700018F4672F0C940C1B90E080E00895CF9213
:10368000DF92FF920F931F93CF93DF936C01009112
:10369000CD0280911A02082BC7E0D0E010E0FC2E8A
:1036A000C8010C2E02C0959587950A94E2F780FD1B
:1036B0000CC02197A0F7F12C8F2DDF91CF911F9196
:1036C0000F91FF90DF90CF900895B6018C2F0E944C
:1036D000321B0E94BD0E019761F3EECFCF93DF93B3
:1036E000EC010E943F1BBE010E94321BDF91CF9173
:1036F0000C94BD0EFC01808191810E946E1B292FCC
:103700002F7092959F7092509E3078F4E92FF0E0E0
:10371000E752FB4C0C942434803F19F020F4883E8F
:1037200020F481E00895843FE1F380E00895883E2D
:10373000C0F3813FD1F7F5CF822F86958695869588
:10374000089583E290E00E948534823289F484E215
:1037500090E00E948534813059F485E290E00E9427
:10376000853491E0853109F090E0892F81700895CA
:1037700080E0FCCFCF9384E090E00E948534C82F96
:1037800082E290E00E948534982F8C2FCF9108958B
:10379000CF92DF92EF92FF926B017C010E94BE0DEF
:1037A000B701A60188E090E0FF90EF90DF90CF9006
:1037B0000C94AB342F923F924F925F926F927F9214
:1037C0008F929F92AF92BF92CF92DF92EF92FF9231
:1037D0000F931F93CF93DF9300D000D0CDB7DEB708
:1037E000182F462E542E222E90917C0290FF46C018
:1037F000E92FE695AE2FB0E0AB58BE4F8C91809389
:103800005F029E7F923009F050C09E012F5F3F4FB4
:10381000812F0E94CD0D4B8169818A810E94AF1456
:1038200010937D0240927E0250927F02222009F482
:103830009DC060917C0270917D0280917E0290918A
:103840007F020E94C81B80918D0280FF17C080916B
:103850007F021F928F9380917E021F928F9380919F
:103860007D021F928F938DE09DE09F938F930E9426
:10387000CB0B0FB6F894DEBF0FBECDBF0F900F90ED
:103880000F900F90DF91CF911F910F91FF90EF90CC
:10389000DF90CF90BF90AF909F908F907F906F9070
:1038A0005F904F903F902F900895823019F4509080
:1038B0007F02B6CF863019F410917D02B1CF8930E6
:1038C000D9F3893109F0ACCFE9512E2F21702C8327
:1038D0008E2F80958170382EE695F0E0E75AF24FF2
:1038E000C590D490DD2434E6A32E32E0B32E912C83
:1038F000812CF12CE12C42E3642E4DE0742EC401A6
:1039000023E0969587952A95E1F72C81012F2111C7
:103910002BC0080F80918D0280FF11C0DF92CF92E3
:103920001F923F921F920F93FF92EF927F926F929E
:103930000E94CB0B0FB6F894DEBF0FBECDBF950132
:10394000452D642D802F0E94CD0D9FEFE91AF90AB5
:103950008C0C9D1C23E0A20EB11C88E0E816F1043B
:1039600071F60E94DC125CCF081BD4CF80918D02CF
:1039700080FF84CF1F925F921F924F921F921F93DE
:1039800086EE9CE072CFECE7F2E0438121E1421B3E
:1039900008F440E021E0628181810C94DA1BECE7BD
:1039A000F2E0438121E1420F08F44FEF21E0628110
:1039B00081810C94DA1BECE7F2E0628121E1621B69
:1039C00008F460E021E0438181810C94DA1BECE78C
:1039D000F2E0628121E1620F08F46FEF21E04381A0
:1039E00081810C94DA1BECE7F2E0818121E04381D4
:1039F000628188500C94DA1BECE7F2E0818121E0CF
:103A000043816281885F0C94DA1B80918002882355
:103A100019F081508093800260917C0270917D0248
:103A200080917E0290917F020C94C81B809180024D
:103A3000833018F48F5F8093800260917C027091D4
:103A40007D0280917E0290917F020C94C81BECE76E
:103A5000F2E083E0808311828FEF8283838314827C
:103A600060817181828193810C94C81B69EE7EEF25
:103A700090E080E00E94B73460E082E090E00E9435
:103A8000993460E083E090E00E94993410921A0229
:103A900060E084E090E00E94993460E082E290E08F
:103AA0000E94993460E085E090E00E94993460E0E3
:103AB00086E090E00E9499346FEF87E090E00E94EA
:103AC000993440E050E0BA0188E090E00E94AB34C5
:103AD00060E08DE090E00E94993440E050E0BA014F
:103AE00088E190E00E94AB3460E087E190E00E94C2
:103AF000993440E050E0BA018CE190E00E94AB3490
:103B000070E060E080E290E00E94B73440E050E076
:103B1000BA0188E190E00E94AB3480E00E94B61ABE
:103B20000E94CE1A40E050E0BA018FE090E00E947F
:103B3000AB3440E050E0BA0183E190E00C94AB3448
:103B400090E080E00E949334893E9E4F11F40C94E3
:103B5000A11B80E008951F920F920FB60F921124BF
:103B60002F933F934F935F936F937F938F939F9385
:103B7000AF93BF93CF93DF93EF93FF93D091E9007F
:103B8000DF708091EC00C82FC17080FDC0E81092FA
:103B9000E9008091F000877F8093F00078940E9484
:103BA000BE161092E9008091F00088608093F000CA
:103BB000CD2BCF70C093E900FF91EF91DF91CF91B2
:103BC000BF91AF919F918F917F916F915F914F9135
:103BD0003F912F910F900FBE0F901F9018951F923D
:103BE0000F920FB60F9211242F933F934F935F9331
:103BF0006F937F938F939F93AF93BF93EF93FF93B5
:103C00008091E10082FF15C08091E20082FF11C027
:103C10008091E1008B7F8093E10020919A022F5FD9
:103C2000822F62E30E94E233992309F4C0C02093FB
:103C30009A028091DA0080FF28C08091D80080FF2E
:103C400024C08091DA008E7F8093DA008091D900C1
:103C500080FFE3C080E189BD82E189BD09B400FE37
:103C6000FDCF81E08093C00288EA9FE00E94320B82
:103C700080919B02811109C00E94D40B0E949F0C6D
:103C80008091E20084608093E2008091E10080FFF7
:103C90001BC08091E20080FF17C08091E2008E7F00
:103CA0008093E2008091E20080618093E200809145
:103CB000D80080628093D80019BC85E08093C00250
:103CC00080EB9FE00E94320B8091E10084FF2FC0C7
:103CD0008091E20084FF2BC080E189BD82E189BD33
:103CE00089B5982F917080FFFBCF8091D8008F7D90
:103CF0008093D8008091E1008F7E8093E1008091D5
:103D0000E2008F7E8093E2008091E20081608093E8
:103D1000E2008091C102882309F489C084E0809385
:103D2000C00284EB9FE00E94320B8091C002809120
:103D3000E10083FF2BC08091E20083FF27C08091C8
:103D4000E100877F8093E10082E08093C0021092BF
:103D5000C1028091E1008E7F8093E1008091E200BA
:103D60008E7F8093E2008091E20080618093E20088
:103D700042E060E080E00E946D0C8091F00088607D
:103D80008093F00088EB9FE00E94320BFF91EF914F
:103D9000BF91AF919F918F917F916F915F914F9163
:103DA0003F912F910F900FBE0F901F90189510927A
:103DB0009A0280919902882309F43BCF8091C00236
:103DC0008430C1F49091E9009F702091EC00822F23
:103DD000817020FD80E8892B95E09093E900909117
:103DE000EB0090FF04C09091EE0097FD08C08F702B
:103DF0008093E900109299021CCF1092F1009091EB
:103E0000E80095FDFACF9091E80090FFF0CF9091F7
:103E1000E8009E779093E800EACF19BC1092C002A8
:103E20008CEA9FE00E94320B10929B022ECF809171
:103E3000E30087FD93E09093C00273CF78941F92C4
:103E40001FB61F9211248F939F93AF93BF938091BE
:103E50008F0290919002A0919102B09192020196EE
:103E6000A11DB11D80938F0290939002A0939102A7
:103E7000B0939202BF91AF919F918F911F901FBEFF
:103E80001F9018959C014FB7F89480918F029091E4
:103E90009002A0919102B09192024FBF821B930BAE
:103EA00008952FB7F89480918F0290919002A0917D
:103EB0009102B09192022FBF08950F931F93CF9359
:103EC000DF93C62FD42F022FFC0182818823A1F01B
:103ED0006093CC020E94511F9093CB028093CA0240
:103EE000C77081E001C0880FCA95EAF7DF91CF91D2
:103EF0001F910F910C9494198091CC02681335C0D6
:103F00008091CA029091CB020E94421F883C910589
:103F100060F510E21D0FCD17B9F080E28C0F8830EC
:103F200040F4C77081E001C0880FCA95EAF70E948B
:103F30008D19183048F481E09D2F977001C0880FCB
:103F40009A95EAF70E949419802F0E94371A183028
:103F500098F4D77081E001C0880FDA95EAF7DF9115
:103F6000CF911F910F910C948D19C77081E001C002
:103F7000880FCA95EAF7F3CFDF91CF911F910F9188
:103F8000089590917C0290FF68C0917081113CC0AF
:103F9000926090937C026623F1F160917C027091B3
:103FA0007D0280917E0290917F020E94C81B8091C9
:103FB0008D0280FF0FC080917C0286951F928F93A7
:103FC0008AEC9CE09F938F930E94CB0B0F900F90F5
:103FD0000F900F9060917C02669570E04BE050E08E
:103FE00083E191E00E946B34892B09F10E94BE1598
:103FF00081E080935C0220E040917F0260917E022C
:1040000080917D020C94DA1B853210F09864C1CF48
:10401000880F982BBECF80918D0280FFDBCF8091DF
:104020007C0286951F928F938CEA9CE0CBCF81E037
:10403000809360020E94511F90935A02809359020C
:1040400080918D0280FFD4CF83E99CE09F938F9372
:104050000E94CB0B0F900F90CBCF089580917C02E4
:104060008695815009F484E261E00C94C11F80912F
:104070007C0286958F5F853208F081E061E00C94C8
:10408000C11F90917C0290FF07C09695981720F071
:10409000961710F40C94372061E00C94C11F3F92E6
:1040A0004F925F926F927F928F929F92AF92BF9248
:1040B000CF92DF92EF92FF920F931F93CF93DF93F4
:1040C00000D000D00F92CDB7DEB78C01FC01838108
:1040D0009481892B31F08081918189238F3F09F070
:1040E000EAC50F900F900F900F900F90DF91CF9136
:1040F0001F910F91FF90EF90DF90CF90BF90AF9006
:104100009F908F907F906F905F904F903F90089519
:104110000E943F1BF82E682F89819A810E947A1095
:1041200069817A818F2D0E94321B7C01F801828186
:10413000882309F4B3C5970122513F452031310549
:1041400008F07FC58FEF93E00E948534FEEEEF0EFE
:104150005FEE852E912C8823A1F180911502877046
:1041600009F4BFCFF8018281882309F4BACF809186
:10417000940282FDB6CF82E00F900F900F900F90C7
:104180000F90DF91CF911F910F91FF90EF90DF90F3
:10419000CF90BF90AF909F908F907F906F905F90E7
:1041A0004F903F900C947E16811424E09206A9F261
:1041B000C4010E948534811101C0EA943FEF831A43
:1041C000930AE110F1CF1C821B82442443944AE0FD
:1041D000342E74018FEFE81AF80AC4010E94853466
:1041E00089831A82882309F4B8CF9FEF980F933000
:1041F00000F58A83498292E0890E911CC7010E94D2
:1042000085348B83882309F4A8CFFE0131967F0182
:10421000F70120812223E9F2213009F049C0918180
:104220008281913041F4F2E0EF0EF11C0E94371AC6
:1042300009C04701EACF923049F422E0E20EF11CB6
:104240000E94C9193FEFE31AF30AE2CF933031F429
:1042500032E0E30EF11C0E949E19F4CF943021F05D
:104260008FEFE81AF80AEECF92E0E90EF11C30E089
:1042700020E0B7016F5F7F4FF70141818053990BB9
:104280008A30910550F021503109E0F28FE99FE02A
:104290000197F1F700C00000F6CF329EF001339E87
:1042A000F00D11249C012E0F3F1F842F7B01E1CFC5
:1042B000E22FF0E0E353FE4F5490822F86958695CF
:1042C000869590E0FC01E354FE4F64902770712CBA
:1042D000022E02C0759467940A94E2F7E1E06E2220
:1042E0007724FC01E355FE4FA490B12C022E02C0AE
:1042F000B594A7940A94E2F7F1E0AF22BB24FC0145
:10430000E356FE4FC490D12C02C0D594C7942A9591
:10431000E2F721E0C222DD246114710419F081EE7C
:104320000E94C919A114B10419F086EE0E94C9199E
:10433000852D0E94371AAB2819F086EE0E949E192F
:10434000672819F081EE0E949E19CD2809F47ACFD2
:104350008CE26CCF81E00E949A160E946716FDCE17
:1043600081E00E947216F9CF82E0F5CF95EFE91651
:104370009CE5F90609F46AC008F464C027E245EE3A
:1043800066EEF6EFEF16FCE5FF0609F483C488231A
:1043900009F4A2C41092CC0223E0E2162DE5F20645
:1043A00008F05BC03AEFE3163CE5F30630F4C701D2
:1043B00082509C45449708F056C00E94BA1B9093C7
:1043C00094028093930290E1E9169CE5F90609F4C2
:1043D00033C108F0A5C0F8E0EF16FCE5FF0609F4CC
:1043E0001DC108F06EC034E0E3163CE5F30609F4A5
:1043F00007C108F050C092E0E9169CE5F90609F4FF
:10440000F9C0809193028260E3E0EE16ECE5FE06CF
:1044100009F4F3C060919302F090940284E090E07C
:104420000E9499346F2D82E290E00E9499340E949C
:10443000A91693CE27E245EE65EE2CC426E241EEA6
:1044400060EE28C427E245EE64EE24C426E241EE85
:1044500062EE20C428E241E0EFCF81E6E8168DE568
:10446000F80609F4AACF80911802F6E1EF16FCE5F0
:10447000FF0609F040C48A7A91E009F490E0909335
:10448000D00169E2811165E380EB91E00E9478152B
:104490000E94CD1562CE809193028061F6E0EF1606
:1044A000FCE5FF0609F4A9C080919302886027E02B
:1044B000E2162CE5F20608F4A0C080919302806217
:1044C0009CC0809193028D7F3CE0E3163CE5F306AF
:1044D00009F493C078F4809193028C609AE0E91615
:1044E0009CE5F90609F489C008F49CC08091930208
:1044F0008E7F83C080919302877FFEE0EF16FCE5FC
:10450000FF0609F47AC0809193028B7F2FE0E216B8
:104510002CE5F20608F471C0809193028F7E6DC085
:104520003CEFE3163CE5F30609F482C0A0F594E104
:10453000E9169CE5F90609F493C098F4F2E1EF1648
:10454000FCE5FF0609F47CC0809193028F7B23E198
:10455000E2162CE5F20608F450C080919302837FA6
:104560004CC03AEFE3163CE5F30609F44DC008F001
:1045700051C095E1E9169CE5F90609F04BCF809111
:10458000930282FB992790F921E0922790FB82F910
:1045900090FB83F932C0E114EDE5FE0609F456C044
:1045A000A0F48091940283602EEFE2162CE5F206CF
:1045B00071F1809194028D7F3FEFE3163CE5F306A5
:1045C00030F1809194028C7F22C082E0E8168DE564
:1045D000F80609F454C008F44CC0E1E6EE16EDE527
:1045E000FE0609F017CF90919302892F8F7E94FFDA
:1045F000806103C0809193028160809393020ACF0F
:10460000809193028460F9CF8091940281608093BD
:10461000940200CF809194028260F9CF809193023E
:104620008064EBCF0E94A916809193028068E5CF49
:10463000809194028E7FEBCF809193028F7DDDCFAE
:104640000E94A916809193028F77D7CF8091940210
:10465000982F909591708E7F892B90FB81F9D7CF01
:104660000E94A91690919302892F97FB87F9805891
:10467000C4CF61E08EE090E00E949934CBCE60E040
:10468000F9CF80918D0280FF10C080917C028095CF
:1046900081701F928F938CEB92E09F938F930E9477
:1046A000CB0B0F900F900F900F9080917C0280FFAA
:1046B0002EC08E7F80937C0260917C0270917D027F
:1046C00080917E0290917F020E94C81B80918D0292
:1046D00080FF0FC080917C0281701F928F938DE4C8
:1046E00092E09F938F930E94CB0B0F900F900F90AF
:1046F0000F900E94BE152FEF30E782E0215030402E
:104700008040E1F700C000000E94DC1226CD8160ED
:1047100080937C0280918D0280FF0DC01F9281E00A
:104720008F9385E892E09F938F930E94CB0B0F901D
:104730000F900F900F9080917C0261E086950E940F
:10474000C11F0BCD4EE250E267E370E20E94B90D4B
:1047500004CD47E350E26EE270E2F8CF4CEF5CE14B
:1047600063EF7CE1F3CF4BED5CE167EE7CE1EECFF4
:1047700043EC5CE16FEC7CE1E9CF4FEC5CE163EC96
:104780007CE1E4CF46E15DE165E07DE1DFCF61E022
:1047900081E0D5CF65E082E00E944120DECC68E078
:1047A00086E0FACF64E18FE0F7CF67E185E1F4CFEF
:1047B00062E289E1F1CF61E083E2C1CF3BE5E3163C
:1047C0003DE5F306C9F18CE5E8168DE5F80651F1F3
:1047D0009AE5E9169DE5F90609F0BFC281E029C016
:1047E0000E94A916EFEFF4E32CE0E150F0402040E6
:1047F000E1F700C000000E94640D90918D02892FA6
:104800008E7F90FF816080938D0280FF05C085E0E0
:1048100093E00E94320BA1CC83EF92E0FACF0E948A
:10482000361D9BCC8091940282FB882780F991E011
:1048300089270E94DD1A91C280E0FBCFC7010E9448
:104840005110D82E99C22F2D2F70C22E8F2D807F00
:1048500019F0C29490EFC922DD20B9F0CC2069F0A4
:1048600080E28E0D883010F0811009C0809118020E
:10487000C82AC09218020E94CD158E2D4DC080917D
:104880001702C82AC0921702F6CF8E2D0E949E19D9
:10489000CC2009F443C080E28E0D883010F08110E6
:1048A00004C08C2D0E94401006C0C0948091170255
:1048B000C822C09217020E94CD1530C03F2D3F7014
:1048C000C32E8F2D807F803219F0C29480EFC822D2
:1048D000882089F081E0881609F47FC0DD2009F482
:1048E00089C0BB2009F47FC0F801858180FFC5CF56
:1048F0008F70858378C02091940222FF4BC0DD2009
:1049000009F442C0CC2039F080911802C82AC09224
:1049100018020E94CD1580E00E94C919292D285047
:10492000330B2430310510F40E94AD0DAA2009F498
:10493000D8CB8091150280FDD4CBF80112828595E9
:10494000859585950E949A16C8010E944F208091F6
:1049500015028595859585950F900F900F900F9076
:104960000F90DF91CF911F910F91FF90EF90DF900B
:10497000CF90BF90AF909F908F907F906F905F90FF
:104980004F903F900C94721680E00E949E19CC20AC
:1049900029F287CFDD20A1F0909119028C2D892B6F
:1049A000B11003C00E949419B9CFE1E0BE12FACF52
:1049B00022FDB4CF981709F4B1CF80931902AECF7E
:1049C000B11006C00E943A108C2D0E948D19A6CFFE
:1049D000F1E0BF1609F4A2CFF5CFDD2031F025E0DC
:1049E0002B1508F49BCF8C2DDDCF34E03B1508F45C
:1049F00095CFEACFBB2041F3F9E38F1217C12FEF18
:104A000037EE83E0215030408040E1F700C00000E5
:104A10008E2D0E949E1982CF8F2D8695869583704C
:104A200061F0813009F07ACFC7019370D11002C0D4
:104A300090E080E00E94810D71CFC7019370D1108A
:104A400002C090E080E00E94970D68CF8F2D8370A8
:104A500091F5D11063CF4E2D429546954770440F86
:104A6000440F8E2D8F70042E01C0880F0A94EAF730
:104A70002E2D2071E4FE07C02FE030E001C0220F90
:104A80004A95EAF720953F2D3695369533703230AA
:104A900069F050F440911A02313029F0822B8423BE
:104AA0000E94A5163BCF842B822BFACF282B809116
:104AB0001A028227F5CF8695DD2011F08F2D8170A7
:104AC000882309F42BCF4E2D429546954770440F0D
:104AD000440F8E2D8F70042E01C0880F0A94EAF7C0
:104AE0002E2D2071E4FE07C02FE030E001C0220F20
:104AF0004A95EAF720953F2D36953695337032303A
:104B000069F050F44091CD02313029F0822B84239A
:104B10000E94631603CF842B822BFACF282B80911F
:104B2000CD028227F5CF2F2D2F70F22EDD2029F018
:104B3000822F0E949A168E2D35CF8E2D0E948D19B0
:104B40008F2D0E947216EACE8E2D32EF8316B1F1B0
:104B5000381570F090EF8916D1F0E1EF8E1691F0D4
:104B6000DD2009F45EC0B11088CE8F2D8F712AC070
:104B7000F3EF8F1651F124EF8212F2CF809194025D
:104B800082FF2FC08F2D8F71DD20D9F21BC0DD2059
:104B900081F034E03B1508F4C1CE2F2D2F7181E058
:104BA00090E001C0880F2A95EAF79091CD028927FD
:104BB000AFCF85E08B1508F4B1CEEFCF8F2D8F717D
:104BC000D110BFCF0E949A16A9CE80E0DD2009F453
:104BD0009FCF9F2D9F7181E001C0880F9A95EAF7C2
:104BE00097CFDD2099F09F2D9F71F92E892F0E947C
:104BF0009A168091940282FD07C0E8E0FE9EC001F3
:104C000011248360809315028F2DDCCF81E00E94F8
:104C10007E16F1E0FB1508F081CE82E00E947E1640
:104C20007DCEBB2059F0893309F4E9CE9FEFE9EF3F
:104C3000F0E09150E040F040E1F7E8CE8F2D8F7129
:104C400080CFF0E1EF16FFE5FF0609F483CB21E109
:104C5000E2162FE5F20609F487CB93EFE9169CE5FF
:104C6000F90609F4EBCB08F081CBF8EDEF16FCE583
:104C7000FF0609F4DFCB29EDE2162CE5F20609F474
:104C8000E9CB37EDE3163CE5F30609F080CB26E2ED
:104C900041EE61EEC8010E945D1F5FCA30E1E3167C
:104CA0003FE5F30609F45CCB91E1E9169FE5F906CF
:104CB000A1F682E056CB85E0DE01119601900D92BF
:104CC0008A95E1F7F801228189819A81211120CA10
:104CD0000E945110F82E24CAF6E1EF16FCE5FF06FB
:104CE000E1F58091D00169E2811165E380EB91E00B
:104CF0000E943D15CDCB82722CECE2162CE5F2061B
:104D000009F440CD08F0ABC096ECE9169CE5F90635
:104D100009F424CD08F07AC0F3ECEF16FCE5FF06A9
:104D200009F410CD08F061C032ECE3163CE5F3065F
:104D300009F4A7CC9EEDE9169CE5F90609F46FCDC0
:104D400008F03CCDE114FCE5FF0609F449CD21E073
:104D5000E2162CE5F20609F450CDF8018281E080DC
:104D6000F180882309F46ACDC7010E943F1BD82E29
:104D7000682FC7010E947A10B7018D2D0E94321B47
:104D80000E94BD0E7C01882EF801D280B580B294BD
:104D90003FE0B322809115028770C1F0AD2CDD2079
:104DA000B1F08F2D807F803421F080E28E0D88302D
:104DB00068F08091940282FD09C082E00E947E1614
:104DC000809115028770AA24A3948111A12C9F2C95
:104DD00092942FE09222FBE0F91508F49FCDE92D83
:104DE000F0E0E951FB4C0C94243494ECE9169CE57A
:104DF000F90609F4AECC43EF5CE16CEF7CE1E5EC45
:104E0000EE16ECE5FE0609F4A1CC94CFF9ECEF1612
:104E1000FCE5FF0609F4ACCC88F437ECE3163CE57E
:104E2000F30609F4A0CC47EE5CE16BED7CE198EC75
:104E3000E9169CE5F90609F489CC7CCFEAECEE167C
:104E4000ECE5FE0609F499CC45E05DE166E17DE123
:104E5000FBECEF16FCE5FF0609F478CC6BCF21EDF7
:104E6000E2162CE5F20609F49DCCB8F48EECE816B7
:104E70008CE5F80609F48ECC08F489CCEFECEE163C
:104E8000ECE5FE0609F48BCC6EE089E0F0EDEF1660
:104E9000FCE5FF0609F480CC4DCF24EDE2162CE5AD
:104EA000F20609F485CC78F482EDE8168CE5F80674
:104EB00009F47BCC61E088E193EDE9169CE5F90605
:104EC00009F43DCC37CFE5EDEE16ECE5FE0609F42E
:104ED00072CCFDE5EF16FF0609F43FC92BCF1F93F7
:104EE000CF93DF938091E201807FA9F48091DF016D
:104EF000882389F080911402D091E3016091DD0153
:104F00007091DE01A091E001B091E101C62FC723AD
:104F100016E0D81304C0DF91CF911F91089590E05F
:104F2000109711F0CF3F19F401968770F2CF189FB8
:104F30009001199F300D1124F901EC51FE4F418170
:104F40004713F2CF40814613EFCF42814111ECCF9E
:104F5000438154814A1B5B0B483C510528F78091E3
:104F6000E2018F7080618093E201F901E751FE4F09
:104F700080818F70806180838DED91E00E944F2051
:104F8000DF91CF911F910C944710AF92BF92CF92B7
:104F9000DF92EF92FF920F931F93CF93DF93CDB7E2
:104FA000DEB761970FB6F894DEBF0FBECDBF8C01A0
:104FB00085E0F801DE011D9601900D928A95E1F7DA
:104FC000F801E2808DEDA82E81E0B82E6091E0011D
:104FD0007091E1016115710509F432C19091DD0113
:104FE0004091DE01892F84238F3F09F429C120815C
:104FF0003181C380D480F090DF01F601E61BF70B0E
:10500000FF2009F4E8C08091E201582F507FE83C6E
:10501000F10508F0ABC0511177C0FE2C431321C03D
:1050200092131FC0E1101DC08F7080618093E20158
:10503000C5010E944F208091E201F80185838F2DE8
:1050400061960FB6F894DEBF0FBECDBFDF91CF9152
:105050001F910F91FF90EF90DF90CF90BF90AF9096
:105060000895CD2829F0822F83238F3F09F003C1B3
:1050700080E0F82FF170DF2E80FF3CC08091140299
:105080004091E30156E0841315C02D873E878D853E
:105090009E850E946E1B292F22952F702230F0F0E2
:1050A000243018F59F70F1F0F8019581907FD1F4CC
:1050B000D12C1EC090E0589FF001599FF00D112493
:1050C000EC51FE4F6181361306C06081261303C088
:1050D0006281E6120FC001968770D5CF9F7011F0E4
:1050E000882331F3805E883018F3C8010E944F2076
:1050F000FD2CA5CFEE2009F4A2CF8091E2018160C2
:105100008093E201F12C9BCF431306C0921304C09D
:10511000F801EE2009F479C0C8010E947A1B8823A7
:1051200009F1EE20F9F08091E201803270F02091D7
:10513000DD013091DE0138872F831986DB86CA8630
:105140008C87CE0107960E944F2086E0F801ADEDD6
:10515000B1E001900D928A95E1F70E946F27FF243C
:10516000F3946DCFC8010E944F20F9CF51110AC0AE
:105170008DED91E00E944F2086E0F50111928A9515
:10518000E9F7C0CF43130FC092130DC0E1100BC05D
:10519000F8018583C8010E944F2086E0F501119235
:1051A0008A95E9F74CCFC8010E947A1B8823D1F277
:1051B000EE20C1F28091E201803238F22091DD01CF
:1051C0003091DE013A8329831B82DD82CC828E837B
:1051D000CE010196B8CFE83CF105F8F6FE2CEE20A2
:1051E00009F243131FC092131DC08091E20180FD9C
:1051F00010C0982F907F69F0F8018583903F31F0BF
:10520000982F907F905F8F70892B8583C8010E94B3
:105210004F2086E0F801ADEDB1E001900D928A9546
:10522000E1F70DCFC8010E947A1B81118ECF8091CA
:10523000E20181608093E201C8010E944F20FFCE0D
:10524000EE2009F48FCFC8010E947A1BF82E882324
:1052500009F488CF86E0F801ADEDB1E001900D9240
:105260008A95E1F78091DD019091DE010E946E1B2D
:105270000E946F27E4CE81E08E25FBCE1F93CF9353
:10528000DF93CDB7DEB767970FB6F894DEBF0FBEDA
:10529000CDBF4B8B5C8B6D8B7E8B8F8B6111109296
:1052A00017021A8A198A85E0FE017396DE011D969F
:1052B00001900D928A95E1F786E0FE013D96DE01B0
:1052C000179601900D928A95E1F7CE0107960E94FC
:1052D000C527882389F016E0809114029091E3019C
:1052E000891349C067960FB6F894DEBF0FBECDBFD5
:1052F000DF91CF911F91089586E0FE013796DE0180
:10530000119601900D928A95E1F78A859B85892BEC
:1053100011F38F81988589238F3FE9F22091E30172
:1053200030E0C9010196877099274091140248170F
:10533000190671F40E94A9161092E301109214024A
:1053400086E0EDEDF1E0DF011D928A95E9F7C3CF2C
:1053500096E0929FD001939FB00D1124AC51BE4FA7
:10536000FE01319601900D929A95E1F78093E30149
:105370000E944710B0CF819FC00111248C519E4FD5
:105380000E94C527882309F4ADCF8091140290E0D4
:10539000019687709927809314029ECF7F928F92F7
:1053A0009F92AF92BF92CF92DF92EF92FF920F93B4
:1053B0001F93CF93DF9300D000D00F92CDB7DEB70D
:1053C0008E010F5F1F4F85E0F80111928A95E9F772
:1053D00083E5C82E81E0D82EF12CE12CAA24A394D9
:1053E000B12C2DE5822E21E0922EF60181916F01E4
:1053F0008F3F09F442C0F894E82FE295EF70F0E097
:1054000021A18F70A50102C0440F551F8A95E2F7B4
:10541000CA01922F982B91A392A18095892382A3F0
:10542000789400C0E8E5F1E0712C31E021912F3F44
:1054300009F469C0A22FA295AF70B0E090968C914C
:1054400090E02F7002C0959587952A95E2F780FD30
:105450005AC0832F782A330F8E169F0639F7F6012C
:10546000319780818F3F11F00E94630E50EA5A9568
:10547000F1F7F801EE0DFF1D70828FEFE81AF80AC0
:10548000E5E0EE16F10409F0B0CF45E050E0B801D8
:105490008EE192E00E947834FF24F394009709F49F
:1054A000F12C892B91F185E0F801AEE1B2E0019099
:1054B0000D928A95E1F781E080931D020E94511FB1
:1054C00090931C0280931B0280911B0290911C02FE
:1054D0000E94421F0597E8F080911E0280935402BB
:1054E00080911F0280935502809120028093560282
:1054F000809121028093570280912202809358026A
:1055000010921D0206C080E0A5CF80911D0281117E
:10551000DBCF8F2D0F900F900F900F900F90DF919A
:10552000CF911F910F91FF90EF90DF90CF90BF90A0
:10553000AF909F908F907F9008951F921FB61F92FB
:1055400011248F939F93AF93BF9380918E0281110B
:1055500013C080918F0290919002A0919102B0911E
:1055600092024196A11DB11D80938F0290939002EB
:10557000A0939102B0939202BF91AF919F918F91AE
:105580001F901FBE1F901895CDB7DEB7AF970FB60F
:10559000F894DEBF0FBECDBF84B7877F84BF0FB640
:1055A000F894A895809160008861809360001092C3
:1055B00060000FBE80E890E00FB6F8948093610021
:1055C000909361000FBE85B7806885BF85B78068FE
:1055D00085BF88E092E19093AF018093AE010E9475
:1055E000D40B0E949F0C8091E20084608093E200C3
:1055F00078948091C0028823A1F01091E9001F7077
:105600009091EC00892F817090FD80E8182B10920A
:10561000E9008091E80083FD0E94BE161F70109380
:10562000E90082E084BD93E095BD9AEF97BD809339
:105630006E000E94A11B811102C00E94CE1A03E5D8
:1056400011E038E5E32E31E0F32ED8018D918D0184
:105650008F3F11F00E94630EE016F106B1F708E5E6
:1056600011E02DE5E22E21E0F22EF80181918F016B
:105670008F3F11F00E94630EE016F106B1F785E04E
:10568000E4E5F2E0DF01082F1D920A95E9F7EEE16B
:10569000F2E0DF011D928A95E9F70E94A01D8111B9
:1056A00002C00E94361D82E090E00E948534809303
:1056B0008D020E94BA1B90939402809393020E94E1
:1056C000CE29EFE3FCE93197F1F700C000000E941A
:1056D000CE298091540281FF08C06FEF7FEF90E0E8
:1056E00080E00E94B7340E94640D83E090E00E9445
:1056F00085340E94A51683E080934C0280E280935B
:10570000CE020E94C7326DE070E089EC93E00E9407
:105710008D11892B09F44BC18DEA93E00E94320B65
:10572000809123028111DDC080918D0280FF14C021
:1057300088E195E09F938F930E94CB0B80918D021F
:105740000F900F9080FF08C082E095E09F938F93A9
:105750000E94CB0B0F900F900E94A01D811110C0D2
:1057600080918D0280FF08C08AED94E09F938F9313
:105770000E94CB0B0F900F900E94361D0E94271D98
:1057800088E090E00E948D3460937C0270937D02EB
:1057900080937E0290937F026E7FD1F480918D0280
:1057A00080FF08C081E994E09F938F930E94CB0B08
:1057B0000F900F900E94271D88E090E00E948D348A
:1057C00060937C0270937D0280937E0290937F02AF
:1057D0000E94BE0D80918D0280FF76C088E794E024
:1057E0009F938F930E94CB0B80918D020F900F900F
:1057F00080FF6AC080917C0281701F928F938BE53D
:1058000094E09F938F930E94CB0B80918D020F9019
:105810000F900F900F9080FF57C080917C0286956B
:105820001F928F9380E494E09F938F930E94CB0B01
:1058300080918D020F900F900F900F9080FF44C0C9
:1058400080917D021F928F9386E294E09F938F93C5
:105850000E94CB0B80918D020F900F900F900F90B4
:1058600080FF32C080917E021F928F938CE094E083
:105870009F938F930E94CB0B80918D020F900F907E
:105880000F900F9080FF20C080917F021F928F9316
:1058900082EF93E09F938F930E94CB0B80918D02B8
:1058A0000F900F900F900F9080FF0EC0809180029C
:1058B0001F928F9386ED93E09F938F930E94CB0B63
:1058C0000F900F900F900F901092600280917C02C9
:1058D00080FF04C060E086950E94C11F81E0809334
:1058E000230286988E9A85988D9A8FB186FB882799
:1058F00080F97D99A9C090E0892B80932602809140
:105900008D02836080938D0280E091E090938A0203
:105910008093890284E592E015E0180F1DA780911D
:10592000C002853089F48FE295E00E94320B90E44A
:10593000F92E00E112E18091C002853009F486C0A1
:105940000E94A9160E94AD0D0E94CE29582E8111E9
:105950000E94750DAFE46A2EA2E07A2EB4E5CB2E3C
:10596000B2E0DB2E10E000E085E3A82E85E0B82E43
:10597000402ED6013D906D01F30121903F0123108F
:105980009EC00F5F1F4F0530110591F78FEF8EA35B
:105990008FA318A60E94511F8160782F9AA789A70C
:1059A0004EA15FA168A58AA50E943E29ADC0809145
:1059B0004C0263E070E081FD09C08AEA93E00E9436
:1059C0008D11892B61F084E893E0A8CE81E893E003
:1059D0000E948D11892B19F089E693E09FCE6DE02E
:1059E00070E08CE593E00E948D11892B19F085E41D
:1059F00093E094CE0E94750D605A75418F4F9F4F72
:105A00006093810270938202809383029093840258
:105A1000E1EDF2E080E092E0DF018C011D920150A7
:105A20001040E1F7F093D804E093D7048FEF9FEF95
:105A30009093D0028093CF0281E08093860280937E
:105A4000850210924D026CCE92E056CF8091C0023A
:105A5000843029F10E94BD1110928E0228E130E0BD
:105A60000FB6F894A895209360000FBEF0926000E6
:105A700083B7817F846083BF83B7816083BF78945D
:105A8000889583B78E7F83BF0FB6F894A8958091D1
:105A90006000886180936000109260000FBE80916A
:105AA000BF02882309F447CF0E94CE29E4E5F2E043
:105AB000819181114DC53DA53E13FACF3CCF809118
:105AC0008D0281FDD0C1232480E0FF24F394922D28
:105AD0009F2109F4FAC189A34AA23F2081E009F479
